{
  "_format": "hh-sol-artifact-1",
  "contractName": "ProductTracking",
  "sourceName": "backend/block_chain/logic.sol",
  "abi": [
    {
      "anonymous": false,
      "inputs": [
        {
          "indexed": false,
          "internalType": "string",
          "name": "productId",
          "type": "string"
        },
        {
          "indexed": false,
          "internalType": "string",
          "name": "participantName",
          "type": "string"
        }
      ],
      "name": "ProductCreated",
      "type": "event"
    },
    {
      "anonymous": false,
      "inputs": [
        {
          "indexed": false,
          "internalType": "string",
          "name": "productId",
          "type": "string"
        }
      ],
      "name": "ProductUpdated",
      "type": "event"
    },
    {
      "inputs": [
        {
          "internalType": "string",
          "name": "_productId",
          "type": "string"
        },
        {
          "internalType": "string",
          "name": "_producerName",
          "type": "string"
        },
        {
          "internalType": "string",
          "name": "_location",
          "type": "string"
        },
        {
          "internalType": "uint256",
          "name": "_price",
          "type": "uint256"
        },
        {
          "internalType": "uint256",
          "name": "_transportCost",
          "type": "uint256"
        }
      ],
      "name": "createProduct",
      "outputs": [],
      "stateMutability": "nonpayable",
      "type": "function"
    },
    {
      "inputs": [
        {
          "internalType": "string",
          "name": "_productId",
          "type": "string"
        }
      ],
      "name": "getProductHistory",
      "outputs": [
        {
          "components": [
            {
              "internalType": "string",
              "name": "producerName",
              "type": "string"
            },
            {
              "internalType": "string",
              "name": "location",
              "type": "string"
            },
            {
              "internalType": "uint256",
              "name": "price",
              "type": "uint256"
            },
            {
              "internalType": "uint256",
              "name": "transportCost",
              "type": "uint256"
            },
            {
              "internalType": "uint256",
              "name": "timestamp",
              "type": "uint256"
            }
          ],
          "internalType": "struct ProductTracking.ProductTransaction[]",
          "name": "",
          "type": "tuple[]"
        }
      ],
      "stateMutability": "view",
      "type": "function"
    },
    {
      "inputs": [
        {
          "internalType": "string",
          "name": "_productId",
          "type": "string"
        }
      ],
      "name": "productExists",
      "outputs": [
        {
          "internalType": "bool",
          "name": "",
          "type": "bool"
        }
      ],
      "stateMutability": "view",
      "type": "function"
    },
    {
      "inputs": [
        {
          "internalType": "string",
          "name": "_productId",
          "type": "string"
        },
        {
          "internalType": "string",
          "name": "_location",
          "type": "string"
        },
        {
          "internalType": "uint256",
          "name": "_price",
          "type": "uint256"
        },
        {
          "internalType": "uint256",
          "name": "_transportCost",
          "type": "uint256"
        }
      ],
      "name": "updateProduct",
      "outputs": [],
      "stateMutability": "nonpayable",
      "type": "function"
    }
  ],
  "bytecode": "0x6080604052348015600f57600080fd5b506112488061001f6000396000f3fe608060405234801561001057600080fd5b506004361061004c5760003560e01c80631a481ecf146100515780638addc0511461006d578063d4f504531461009d578063fee6e1a5146100cd575b600080fd5b61006b600480360381019061006691906108a3565b6100e9565b005b61008760048036038101906100829190610972565b610289565b60405161009491906109d6565b60405180910390f35b6100b760048036038101906100b29190610972565b6102c0565b6040516100c49190610bbe565b60405180910390f35b6100e760048036038101906100e29190610be0565b6104f0565b005b6000856040516100f99190610cbb565b908152602001604051809103902060020160009054906101000a900460ff1615610158576040517f08c379a000000000000000000000000000000000000000000000000000000000815260040161014f90610d55565b60405180910390fd5b600080866040516101699190610cbb565b908152602001604051809103902090508581600001908161018a9190610f81565b5060018160020160006101000a81548160ff021916908315150217905550806001016040518060a0016040528087815260200186815260200185815260200184815260200142815250908060018154018082558091505060019003906000526020600020906005020160009091909190915060008201518160000190816102119190610f81565b5060208201518160010190816102279190610f81565b5060408201518160020155606082015181600301556080820151816004015550507fb20e06f53a8ce7007cf0d42ab0685b54f920b89e46d4223106b75e29a8be775b868660405161027992919061108c565b60405180910390a1505050505050565b6000808260405161029a9190610cbb565b908152602001604051809103902060020160009054906101000a900460ff169050919050565b60606000826040516102d29190610cbb565b908152602001604051809103902060020160009054906101000a900460ff16610330576040517f08c379a00000000000000000000000000000000000000000000000000000000081526004016103279061110f565b60405180910390fd5b6000826040516103409190610cbb565b9081526020016040518091039020600101805480602002602001604051908101604052809291908181526020016000905b828210156104e557838290600052602060002090600502016040518060a00160405290816000820180546103a490610da4565b80601f01602080910402602001604051908101604052809291908181526020018280546103d090610da4565b801561041d5780601f106103f25761010080835404028352916020019161041d565b820191906000526020600020905b81548152906001019060200180831161040057829003601f168201915b5050505050815260200160018201805461043690610da4565b80601f016020809104026020016040519081016040528092919081815260200182805461046290610da4565b80156104af5780601f10610484576101008083540402835291602001916104af565b820191906000526020600020905b81548152906001019060200180831161049257829003601f168201915b50505050508152602001600282015481526020016003820154815260200160048201548152505081526020019060010190610371565b505050509050919050565b6000846040516105009190610cbb565b908152602001604051809103902060020160009054906101000a900460ff1661055e576040517f08c379a0000000000000000000000000000000000000000000000000000000008152600401610555906111a1565b60405180910390fd5b6000808560405161056f9190610cbb565b90815260200160405180910390209050600081600101600081548110610598576105976111c1565b5b906000526020600020906005020160000180546105b490610da4565b80601f01602080910402602001604051908101604052809291908181526020018280546105e090610da4565b801561062d5780601f106106025761010080835404028352916020019161062d565b820191906000526020600020905b81548152906001019060200180831161061057829003601f168201915b50505050509050816001016040518060a00160405280838152602001878152602001868152602001858152602001428152509080600181540180825580915050600190039060005260206000209060050201600090919091909150600082015181600001908161069d9190610f81565b5060208201518160010190816106b39190610f81565b5060408201518160020155606082015181600301556080820151816004015550507f4715e71e173cf1d6b6520d14d27288495caf68a395138f2c31bcd7c4c8a6938c8660405161070391906111f0565b60405180910390a1505050505050565b6000604051905090565b600080fd5b600080fd5b600080fd5b600080fd5b6000601f19601f8301169050919050565b7f4e487b7100000000000000000000000000000000000000000000000000000000600052604160045260246000fd5b61077a82610731565b810181811067ffffffffffffffff8211171561079957610798610742565b5b80604052505050565b60006107ac610713565b90506107b88282610771565b919050565b600067ffffffffffffffff8211156107d8576107d7610742565b5b6107e182610731565b9050602081019050919050565b82818337600083830152505050565b600061081061080b846107bd565b6107a2565b90508281526020810184848401111561082c5761082b61072c565b5b6108378482856107ee565b509392505050565b600082601f83011261085457610853610727565b5b81356108648482602086016107fd565b91505092915050565b6000819050919050565b6108808161086d565b811461088b57600080fd5b50565b60008135905061089d81610877565b92915050565b600080600080600060a086880312156108bf576108be61071d565b5b600086013567ffffffffffffffff8111156108dd576108dc610722565b5b6108e98882890161083f565b955050602086013567ffffffffffffffff81111561090a57610909610722565b5b6109168882890161083f565b945050604086013567ffffffffffffffff81111561093757610936610722565b5b6109438882890161083f565b93505060606109548882890161088e565b92505060806109658882890161088e565b9150509295509295909350565b6000602082840312156109885761098761071d565b5b600082013567ffffffffffffffff8111156109a6576109a5610722565b5b6109b28482850161083f565b91505092915050565b60008115159050919050565b6109d0816109bb565b82525050565b60006020820190506109eb60008301846109c7565b92915050565b600081519050919050565b600082825260208201905092915050565b6000819050602082019050919050565b600081519050919050565b600082825260208201905092915050565b60005b83811015610a57578082015181840152602081019050610a3c565b60008484015250505050565b6000610a6e82610a1d565b610a788185610a28565b9350610a88818560208601610a39565b610a9181610731565b840191505092915050565b610aa58161086d565b82525050565b600060a0830160008301518482036000860152610ac88282610a63565b91505060208301518482036020860152610ae28282610a63565b9150506040830151610af76040860182610a9c565b506060830151610b0a6060860182610a9c565b506080830151610b1d6080860182610a9c565b508091505092915050565b6000610b348383610aab565b905092915050565b6000602082019050919050565b6000610b54826109f1565b610b5e81856109fc565b935083602082028501610b7085610a0d565b8060005b85811015610bac5784840389528151610b8d8582610b28565b9450610b9883610b3c565b925060208a01995050600181019050610b74565b50829750879550505050505092915050565b60006020820190508181036000830152610bd88184610b49565b905092915050565b60008060008060808587031215610bfa57610bf961071d565b5b600085013567ffffffffffffffff811115610c1857610c17610722565b5b610c248782880161083f565b945050602085013567ffffffffffffffff811115610c4557610c44610722565b5b610c518782880161083f565b9350506040610c628782880161088e565b9250506060610c738782880161088e565b91505092959194509250565b600081905092915050565b6000610c9582610a1d565b610c9f8185610c7f565b9350610caf818560208601610a39565b80840191505092915050565b6000610cc78284610c8a565b915081905092915050565b600082825260208201905092915050565b7f50726f6475637420616c7265616479206578697374732e20557365207570646160008201527f746550726f647563742e00000000000000000000000000000000000000000000602082015250565b6000610d3f602a83610cd2565b9150610d4a82610ce3565b604082019050919050565b60006020820190508181036000830152610d6e81610d32565b9050919050565b7f4e487b7100000000000000000000000000000000000000000000000000000000600052602260045260246000fd5b60006002820490506001821680610dbc57607f821691505b602082108103610dcf57610dce610d75565b5b50919050565b60008190508160005260206000209050919050565b60006020601f8301049050919050565b600082821b905092915050565b600060088302610e377fffffffffffffffffffffffffffffffffffffffffffffffffffffffffffffffff82610dfa565b610e418683610dfa565b95508019841693508086168417925050509392505050565b6000819050919050565b6000610e7e610e79610e748461086d565b610e59565b61086d565b9050919050565b6000819050919050565b610e9883610e63565b610eac610ea482610e85565b848454610e07565b825550505050565b600090565b610ec1610eb4565b610ecc818484610e8f565b505050565b5b81811015610ef057610ee5600082610eb9565b600181019050610ed2565b5050565b601f821115610f3557610f0681610dd5565b610f0f84610dea565b81016020851015610f1e578190505b610f32610f2a85610dea565b830182610ed1565b50505b505050565b600082821c905092915050565b6000610f5860001984600802610f3a565b1980831691505092915050565b6000610f718383610f47565b9150826002028217905092915050565b610f8a82610a1d565b67ffffffffffffffff811115610fa357610fa2610742565b5b610fad8254610da4565b610fb8828285610ef4565b600060209050601f831160018114610feb5760008415610fd9578287015190505b610fe38582610f65565b86555061104b565b601f198416610ff986610dd5565b60005b8281101561102157848901518255600182019150602085019450602081019050610ffc565b8683101561103e578489015161103a601f891682610f47565b8355505b6001600288020188555050505b505050505050565b600061105e82610a1d565b6110688185610cd2565b9350611078818560208601610a39565b61108181610731565b840191505092915050565b600060408201905081810360008301526110a68185611053565b905081810360208301526110ba8184611053565b90509392505050565b7f50726f6475637420646f6573206e6f742065786973742e000000000000000000600082015250565b60006110f9601783610cd2565b9150611104826110c3565b602082019050919050565b60006020820190508181036000830152611128816110ec565b9050919050565b7f50726f6475637420646f6573206e6f742065786973742e20557365206372656160008201527f746550726f647563742066697273742e00000000000000000000000000000000602082015250565b600061118b603083610cd2565b91506111968261112f565b604082019050919050565b600060208201905081810360008301526111ba8161117e565b9050919050565b7f4e487b7100000000000000000000000000000000000000000000000000000000600052603260045260246000fd5b6000602082019050818103600083015261120a8184611053565b90509291505056fea26469706673582212206f1e3f90afca7cc86886ca075a18c189a5d0456ce7c5ce1c8b822f2771f64fbf64736f6c634300081c0033",
  "linkReferences": {},
  "deployedLinkReferences": {}
}